{
  "_format": "hh-sol-artifact-1",
  "contractName": "RPS",
  "sourceName": "contracts/rps/RPS.sol",
  "abi": [
    {
      "inputs": [
        {
          "internalType": "address",
          "name": "_treasury",
          "type": "address"
        },
        {
          "internalType": "address",
          "name": "token",
          "type": "address"
        }
      ],
      "stateMutability": "nonpayable",
      "type": "constructor"
    },
    {
      "inputs": [
        {
          "internalType": "address",
          "name": "owner",
          "type": "address"
        }
      ],
      "name": "OwnableInvalidOwner",
      "type": "error"
    },
    {
      "inputs": [
        {
          "internalType": "address",
          "name": "account",
          "type": "address"
        }
      ],
      "name": "OwnableUnauthorizedAccount",
      "type": "error"
    },
    {
      "anonymous": false,
      "inputs": [
        {
          "indexed": true,
          "internalType": "uint256",
          "name": "betId",
          "type": "uint256"
        },
        {
          "indexed": true,
          "internalType": "address",
          "name": "player",
          "type": "address"
        },
        {
          "indexed": false,
          "internalType": "uint256",
          "name": "amount",
          "type": "uint256"
        },
        {
          "indexed": false,
          "internalType": "uint8",
          "name": "choice",
          "type": "uint8"
        },
        {
          "indexed": false,
          "internalType": "address",
          "name": "token",
          "type": "address"
        }
      ],
      "name": "BetPlaced",
      "type": "event"
    },
    {
      "anonymous": false,
      "inputs": [
        {
          "indexed": true,
          "internalType": "uint256",
          "name": "betId",
          "type": "uint256"
        },
        {
          "indexed": true,
          "internalType": "address",
          "name": "player",
          "type": "address"
        },
        {
          "indexed": false,
          "internalType": "uint256",
          "name": "amount",
          "type": "uint256"
        },
        {
          "indexed": false,
          "internalType": "address",
          "name": "token",
          "type": "address"
        }
      ],
      "name": "BetRefunded",
      "type": "event"
    },
    {
      "anonymous": false,
      "inputs": [
        {
          "indexed": true,
          "internalType": "uint256",
          "name": "betId",
          "type": "uint256"
        },
        {
          "indexed": true,
          "internalType": "address",
          "name": "player",
          "type": "address"
        },
        {
          "indexed": false,
          "internalType": "uint256",
          "name": "amount",
          "type": "uint256"
        },
        {
          "indexed": false,
          "internalType": "uint8",
          "name": "choice",
          "type": "uint8"
        },
        {
          "indexed": false,
          "internalType": "uint8",
          "name": "outcome",
          "type": "uint8"
        },
        {
          "indexed": false,
          "internalType": "uint256",
          "name": "winAmount",
          "type": "uint256"
        },
        {
          "indexed": false,
          "internalType": "address",
          "name": "token",
          "type": "address"
        }
      ],
      "name": "BetSettled",
      "type": "event"
    },
    {
      "anonymous": false,
      "inputs": [
        {
          "indexed": true,
          "internalType": "address",
          "name": "previousOwner",
          "type": "address"
        },
        {
          "indexed": true,
          "internalType": "address",
          "name": "newOwner",
          "type": "address"
        }
      ],
      "name": "OwnershipTransferred",
      "type": "event"
    },
    {
      "inputs": [
        {
          "internalType": "uint256",
          "name": "betId",
          "type": "uint256"
        },
        {
          "internalType": "uint256",
          "name": "seed",
          "type": "uint256"
        }
      ],
      "name": "_settleBet",
      "outputs": [],
      "stateMutability": "nonpayable",
      "type": "function"
    },
    {
      "inputs": [
        {
          "internalType": "bytes32",
          "name": "",
          "type": "bytes32"
        },
        {
          "internalType": "uint256",
          "name": "",
          "type": "uint256"
        }
      ],
      "name": "betMap",
      "outputs": [
        {
          "internalType": "uint256",
          "name": "",
          "type": "uint256"
        }
      ],
      "stateMutability": "view",
      "type": "function"
    },
    {
      "inputs": [
        {
          "internalType": "uint256",
          "name": "",
          "type": "uint256"
        }
      ],
      "name": "bets",
      "outputs": [
        {
          "internalType": "uint8",
          "name": "choice",
          "type": "uint8"
        },
        {
          "internalType": "uint8",
          "name": "outcome",
          "type": "uint8"
        },
        {
          "internalType": "bool",
          "name": "isDraw",
          "type": "bool"
        },
        {
          "internalType": "uint176",
          "name": "placeBlockNumber",
          "type": "uint176"
        },
        {
          "internalType": "uint128",
          "name": "amount",
          "type": "uint128"
        },
        {
          "internalType": "uint128",
          "name": "winAmount",
          "type": "uint128"
        },
        {
          "internalType": "address",
          "name": "player",
          "type": "address"
        },
        {
          "internalType": "address",
          "name": "token",
          "type": "address"
        },
        {
          "internalType": "bool",
          "name": "isSettled",
          "type": "bool"
        }
      ],
      "stateMutability": "view",
      "type": "function"
    },
    {
      "inputs": [],
      "name": "betsLength",
      "outputs": [
        {
          "internalType": "uint256",
          "name": "",
          "type": "uint256"
        }
      ],
      "stateMutability": "view",
      "type": "function"
    },
    {
      "inputs": [
        {
          "internalType": "address",
          "name": "",
          "type": "address"
        }
      ],
      "name": "callers",
      "outputs": [
        {
          "internalType": "bool",
          "name": "",
          "type": "bool"
        }
      ],
      "stateMutability": "view",
      "type": "function"
    },
    {
      "inputs": [],
      "name": "explosionRate",
      "outputs": [
        {
          "internalType": "uint256",
          "name": "",
          "type": "uint256"
        }
      ],
      "stateMutability": "view",
      "type": "function"
    },
    {
      "inputs": [],
      "name": "explosionRateGlobal",
      "outputs": [
        {
          "internalType": "uint256",
          "name": "",
          "type": "uint256"
        }
      ],
      "stateMutability": "view",
      "type": "function"
    },
    {
      "inputs": [],
      "name": "gameIsLive",
      "outputs": [
        {
          "internalType": "bool",
          "name": "",
          "type": "bool"
        }
      ],
      "stateMutability": "view",
      "type": "function"
    },
    {
      "inputs": [],
      "name": "getAverangeAmount",
      "outputs": [
        {
          "internalType": "uint256",
          "name": "",
          "type": "uint256"
        }
      ],
      "stateMutability": "view",
      "type": "function"
    },
    {
      "inputs": [
        {
          "internalType": "uint256",
          "name": "amount",
          "type": "uint256"
        },
        {
          "internalType": "bool",
          "name": "fullList",
          "type": "bool"
        }
      ],
      "name": "getLastBets",
      "outputs": [
        {
          "components": [
            {
              "internalType": "uint8",
              "name": "choice",
              "type": "uint8"
            },
            {
              "internalType": "uint8",
              "name": "outcome",
              "type": "uint8"
            },
            {
              "internalType": "bool",
              "name": "isDraw",
              "type": "bool"
            },
            {
              "internalType": "uint176",
              "name": "placeBlockNumber",
              "type": "uint176"
            },
            {
              "internalType": "uint128",
              "name": "amount",
              "type": "uint128"
            },
            {
              "internalType": "uint128",
              "name": "winAmount",
              "type": "uint128"
            },
            {
              "internalType": "address",
              "name": "player",
              "type": "address"
            },
            {
              "internalType": "address",
              "name": "token",
              "type": "address"
            },
            {
              "internalType": "bool",
              "name": "isSettled",
              "type": "bool"
            }
          ],
          "internalType": "struct ManagerRPS.Bet[]",
          "name": "",
          "type": "tuple[]"
        }
      ],
      "stateMutability": "view",
      "type": "function"
    },
    {
      "inputs": [
        {
          "internalType": "address",
          "name": "player",
          "type": "address"
        }
      ],
      "name": "getPlayerBets",
      "outputs": [
        {
          "internalType": "uint256[]",
          "name": "",
          "type": "uint256[]"
        }
      ],
      "stateMutability": "view",
      "type": "function"
    },
    {
      "inputs": [
        {
          "internalType": "address",
          "name": "player",
          "type": "address"
        }
      ],
      "name": "getPlayerInfo",
      "outputs": [
        {
          "internalType": "uint256",
          "name": "",
          "type": "uint256"
        },
        {
          "internalType": "uint256",
          "name": "",
          "type": "uint256"
        },
        {
          "internalType": "uint256",
          "name": "",
          "type": "uint256"
        }
      ],
      "stateMutability": "view",
      "type": "function"
    },
    {
      "inputs": [],
      "name": "maxMultiplier",
      "outputs": [
        {
          "internalType": "uint256",
          "name": "",
          "type": "uint256"
        }
      ],
      "stateMutability": "view",
      "type": "function"
    },
    {
      "inputs": [],
      "name": "minMultiplier",
      "outputs": [
        {
          "internalType": "uint256",
          "name": "",
          "type": "uint256"
        }
      ],
      "stateMutability": "view",
      "type": "function"
    },
    {
      "inputs": [],
      "name": "owner",
      "outputs": [
        {
          "internalType": "address",
          "name": "",
          "type": "address"
        }
      ],
      "stateMutability": "view",
      "type": "function"
    },
    {
      "inputs": [
        {
          "internalType": "address",
          "name": "",
          "type": "address"
        }
      ],
      "name": "pendingIdsPerPlayer",
      "outputs": [
        {
          "internalType": "uint256",
          "name": "",
          "type": "uint256"
        }
      ],
      "stateMutability": "view",
      "type": "function"
    },
    {
      "inputs": [],
      "name": "permit2",
      "outputs": [
        {
          "internalType": "contract ISignatureTransfer",
          "name": "",
          "type": "address"
        }
      ],
      "stateMutability": "view",
      "type": "function"
    },
    {
      "inputs": [
        {
          "internalType": "uint8",
          "name": "side",
          "type": "uint8"
        },
        {
          "components": [
            {
              "components": [
                {
                  "internalType": "address",
                  "name": "token",
                  "type": "address"
                },
                {
                  "internalType": "uint256",
                  "name": "amount",
                  "type": "uint256"
                }
              ],
              "internalType": "struct ISignatureTransfer.TokenPermissions",
              "name": "permitted",
              "type": "tuple"
            },
            {
              "internalType": "uint256",
              "name": "nonce",
              "type": "uint256"
            },
            {
              "internalType": "uint256",
              "name": "deadline",
              "type": "uint256"
            }
          ],
          "internalType": "struct ISignatureTransfer.PermitTransferFrom",
          "name": "permit",
          "type": "tuple"
        },
        {
          "components": [
            {
              "internalType": "address",
              "name": "to",
              "type": "address"
            },
            {
              "internalType": "uint256",
              "name": "requestedAmount",
              "type": "uint256"
            }
          ],
          "internalType": "struct ISignatureTransfer.SignatureTransferDetails",
          "name": "transferDetails",
          "type": "tuple"
        },
        {
          "internalType": "bytes",
          "name": "signature",
          "type": "bytes"
        }
      ],
      "name": "placeBet",
      "outputs": [],
      "stateMutability": "nonpayable",
      "type": "function"
    },
    {
      "inputs": [
        {
          "internalType": "address",
          "name": "",
          "type": "address"
        }
      ],
      "name": "playerInfo",
      "outputs": [
        {
          "internalType": "uint32",
          "name": "totalBets",
          "type": "uint32"
        },
        {
          "internalType": "uint32",
          "name": "totalWins",
          "type": "uint32"
        },
        {
          "internalType": "uint256",
          "name": "totalValue",
          "type": "uint256"
        },
        {
          "internalType": "uint256",
          "name": "points",
          "type": "uint256"
        }
      ],
      "stateMutability": "view",
      "type": "function"
    },
    {
      "inputs": [
        {
          "internalType": "uint256",
          "name": "betId",
          "type": "uint256"
        }
      ],
      "name": "refundBet",
      "outputs": [],
      "stateMutability": "nonpayable",
      "type": "function"
    },
    {
      "inputs": [],
      "name": "renounceOwnership",
      "outputs": [],
      "stateMutability": "nonpayable",
      "type": "function"
    },
    {
      "inputs": [
        {
          "internalType": "address",
          "name": "token",
          "type": "address"
        },
        {
          "internalType": "uint256",
          "name": "amout",
          "type": "uint256"
        }
      ],
      "name": "setApproveTreasury",
      "outputs": [],
      "stateMutability": "nonpayable",
      "type": "function"
    },
    {
      "inputs": [
        {
          "internalType": "uint256",
          "name": "_explosionRate",
          "type": "uint256"
        }
      ],
      "name": "setExplosionRate",
      "outputs": [],
      "stateMutability": "nonpayable",
      "type": "function"
    },
    {
      "inputs": [
        {
          "internalType": "address",
          "name": "token",
          "type": "address"
        },
        {
          "internalType": "uint256",
          "name": "_houseEdgeBP",
          "type": "uint256"
        }
      ],
      "name": "setHouseEdgeBP",
      "outputs": [],
      "stateMutability": "nonpayable",
      "type": "function"
    },
    {
      "inputs": [
        {
          "internalType": "address",
          "name": "token",
          "type": "address"
        },
        {
          "internalType": "uint128",
          "name": "_maxBetAmount",
          "type": "uint128"
        }
      ],
      "name": "setMaxBetAmount",
      "outputs": [],
      "stateMutability": "nonpayable",
      "type": "function"
    },
    {
      "inputs": [
        {
          "internalType": "uint256",
          "name": "_maxMultiplier",
          "type": "uint256"
        }
      ],
      "name": "setMaxMultiplier",
      "outputs": [],
      "stateMutability": "nonpayable",
      "type": "function"
    },
    {
      "inputs": [
        {
          "internalType": "address",
          "name": "token",
          "type": "address"
        },
        {
          "internalType": "uint128",
          "name": "_minBetAmount",
          "type": "uint128"
        }
      ],
      "name": "setMinBetAmount",
      "outputs": [],
      "stateMutability": "nonpayable",
      "type": "function"
    },
    {
      "inputs": [
        {
          "internalType": "uint256",
          "name": "_minMultiplier",
          "type": "uint256"
        }
      ],
      "name": "setMinMultiplier",
      "outputs": [],
      "stateMutability": "nonpayable",
      "type": "function"
    },
    {
      "inputs": [
        {
          "internalType": "address",
          "name": "newCaller",
          "type": "address"
        }
      ],
      "name": "setNewCaller",
      "outputs": [],
      "stateMutability": "nonpayable",
      "type": "function"
    },
    {
      "inputs": [
        {
          "internalType": "contract ISignatureTransfer",
          "name": "_permit2",
          "type": "address"
        }
      ],
      "name": "setPermit2",
      "outputs": [],
      "stateMutability": "nonpayable",
      "type": "function"
    },
    {
      "inputs": [
        {
          "internalType": "contract ITreasury",
          "name": "_treasury",
          "type": "address"
        }
      ],
      "name": "setTreasury",
      "outputs": [],
      "stateMutability": "nonpayable",
      "type": "function"
    },
    {
      "inputs": [
        {
          "internalType": "address",
          "name": "",
          "type": "address"
        }
      ],
      "name": "supportedTokenInfo",
      "outputs": [
        {
          "internalType": "uint128",
          "name": "minBetAmount",
          "type": "uint128"
        },
        {
          "internalType": "uint128",
          "name": "maxBetAmount",
          "type": "uint128"
        },
        {
          "internalType": "uint256",
          "name": "houseEdgeBP",
          "type": "uint256"
        }
      ],
      "stateMutability": "view",
      "type": "function"
    },
    {
      "inputs": [],
      "name": "toggleGameIsLive",
      "outputs": [],
      "stateMutability": "nonpayable",
      "type": "function"
    },
    {
      "inputs": [],
      "name": "totalBetsGlobal",
      "outputs": [
        {
          "internalType": "uint256",
          "name": "",
          "type": "uint256"
        }
      ],
      "stateMutability": "view",
      "type": "function"
    },
    {
      "inputs": [],
      "name": "totalGlobalWins",
      "outputs": [
        {
          "internalType": "uint256",
          "name": "",
          "type": "uint256"
        }
      ],
      "stateMutability": "view",
      "type": "function"
    },
    {
      "inputs": [],
      "name": "totalValueGlobal",
      "outputs": [
        {
          "internalType": "uint256",
          "name": "",
          "type": "uint256"
        }
      ],
      "stateMutability": "view",
      "type": "function"
    },
    {
      "inputs": [],
      "name": "totalValueGlobalIn",
      "outputs": [
        {
          "internalType": "uint256",
          "name": "",
          "type": "uint256"
        }
      ],
      "stateMutability": "view",
      "type": "function"
    },
    {
      "inputs": [
        {
          "internalType": "address",
          "name": "newOwner",
          "type": "address"
        }
      ],
      "name": "transferOwnership",
      "outputs": [],
      "stateMutability": "nonpayable",
      "type": "function"
    },
    {
      "inputs": [],
      "name": "treasury",
      "outputs": [
        {
          "internalType": "contract ITreasury",
          "name": "",
          "type": "address"
        }
      ],
      "stateMutability": "view",
      "type": "function"
    },
    {
      "inputs": [
        {
          "internalType": "address",
          "name": "beneficiary",
          "type": "address"
        },
        {
          "internalType": "uint256",
          "name": "withdrawAmount",
          "type": "uint256"
        },
        {
          "internalType": "address",
          "name": "token",
          "type": "address"
        }
      ],
      "name": "withdrawCustomTokenFunds",
      "outputs": [],
      "stateMutability": "nonpayable",
      "type": "function"
    }
  ],
  "bytecode": "0x6080604052606460015561271060025560036006556e22d473030f116ddee9f6b43ac78ba3600760006101000a81548173ffffffffffffffffffffffffffffffffffffffff021916908373ffffffffffffffffffffffffffffffffffffffff16021790555034801561007057600080fd5b506040516150ee3803806150ee8339818101604052810190610092919061038b565b3333600073ffffffffffffffffffffffffffffffffffffffff168173ffffffffffffffffffffffffffffffffffffffff16036101065760006040517f1e4fbdf70000000000000000000000000000000000000000000000000000000081526004016100fd91906103da565b60405180910390fd5b6101158161026460201b60201c565b50506001600e60003373ffffffffffffffffffffffffffffffffffffffff1673ffffffffffffffffffffffffffffffffffffffff16815260200190815260200160002060006101000a81548160ff02191690831515021790555081600860006101000a81548173ffffffffffffffffffffffffffffffffffffffff021916908373ffffffffffffffffffffffffffffffffffffffff1602179055508073ffffffffffffffffffffffffffffffffffffffff1663095ea7b3600860009054906101000a900473ffffffffffffffffffffffffffffffffffffffff166b033b2e3c15095d385e1800006040518363ffffffff1660e01b8152600401610219929190610444565b6020604051808303816000875af1158015610238573d6000803e3d6000fd5b505050506040513d601f19601f8201168201806040525081019061025c91906104a5565b5050506104d2565b60008060009054906101000a900473ffffffffffffffffffffffffffffffffffffffff169050816000806101000a81548173ffffffffffffffffffffffffffffffffffffffff021916908373ffffffffffffffffffffffffffffffffffffffff1602179055508173ffffffffffffffffffffffffffffffffffffffff168173ffffffffffffffffffffffffffffffffffffffff167f8be0079c531659141344cd1fd0a4f28419497f9722a3daafe3b4186f6b6457e060405160405180910390a35050565b600080fd5b600073ffffffffffffffffffffffffffffffffffffffff82169050919050565b60006103588261032d565b9050919050565b6103688161034d565b811461037357600080fd5b50565b6000815190506103858161035f565b92915050565b600080604083850312156103a2576103a1610328565b5b60006103b085828601610376565b92505060206103c185828601610376565b9150509250929050565b6103d48161034d565b82525050565b60006020820190506103ef60008301846103cb565b92915050565b6000819050919050565b6000819050919050565b6000819050919050565b600061042e610429610424846103f5565b610409565b6103ff565b9050919050565b61043e81610413565b82525050565b600060408201905061045960008301856103cb565b6104666020830184610435565b9392505050565b60008115159050919050565b6104828161046d565b811461048d57600080fd5b50565b60008151905061049f81610479565b92915050565b6000602082840312156104bb576104ba610328565b5b60006104c984828501610490565b91505092915050565b614c0d806104e16000396000f3fe608060405234801561001057600080fd5b50600436106102485760003560e01c80638da5cb5b1161013b578063bbd2e01e116100b8578063eaf07c8c1161007c578063eaf07c8c146106b2578063f0f44260146106e2578063f2fde38b146106fe578063f3246bd21461071a578063ff685b5f1461074a57610248565b8063bbd2e01e1461060a578063d414d0c214610628578063e1fdb4b414610646578063e695c25314610662578063e71381431461068057610248565b8063a24e0d87116100ff578063a24e0d871461057a578063a7af380c14610598578063a9e4ee1d146105b4578063b14c8009146105d2578063b7dc5752146105ee57610248565b80638da5cb5b146104fc5780639453912e1461051a5780639fd751c714610538578063a045a6fc14610554578063a14772271461055e57610248565b806322af00fa116101c957806361d027b31161018d57806361d027b314610456578063621999be14610474578063715018a6146104a45780637bbf4a3f146104ae57806381c8ec1b146104de57610248565b806322af00fa1461036d5780634785036b146103a55780634b114691146103c157806357261398146103f4578063593284011461042457610248565b806312261ee71161021057806312261ee7146102db578063145287d6146102f957806317348914146103175780631e9bcef51461033357806320ca761b1461035157610248565b806301526a431461024d5780630187aea014610269578063026795761461028757806309076344146102a3578063101ec30a146102bf575b600080fd5b610267600480360381019061026291906132e9565b610768565b005b61027161077a565b60405161027e9190613325565b60405180910390f35b6102a1600480360381019061029c9190613340565b610780565b005b6102bd60048036038101906102b891906133de565b610a97565b005b6102d960048036038101906102d4919061345c565b610b40565b005b6102e3610b8c565b6040516102f091906134e8565b60405180910390f35b610301610bb2565b60405161030e9190613325565b60405180910390f35b610331600480360381019061032c9190613503565b610bb8565b005b61033b610c1b565b6040516103489190613325565b60405180910390f35b61036b600480360381019061036691906133de565b610c21565b005b610387600480360381019061038291906132e9565b610cce565b60405161039c999897969594939291906135d2565b60405180910390f35b6103bf60048036038101906103ba9190613859565b610dfa565b005b6103db60048036038101906103d69190613503565b611739565b6040516103eb9493929190613901565b60405180910390f35b61040e60048036038101906104099190613503565b611789565b60405161041b9190613325565b60405180910390f35b61043e60048036038101906104399190613503565b6117a1565b60405161044d93929190613946565b60405180910390f35b61045e611895565b60405161046b919061399e565b60405180910390f35b61048e600480360381019061048991906139ef565b6118bb565b60405161049b9190613325565b60405180910390f35b6104ac6118ec565b005b6104c860048036038101906104c39190613503565b611900565b6040516104d59190613a2f565b60405180910390f35b6104e6611920565b6040516104f39190613325565b60405180910390f35b610504611926565b6040516105119190613a4a565b60405180910390f35b61052261194f565b60405161052f9190613325565b60405180910390f35b610552600480360381019061054d91906132e9565b611955565b005b61055c611967565b005b61057860048036038101906105739190613a91565b61199b565b005b610582611ae4565b60405161058f9190613325565b60405180910390f35b6105b260048036038101906105ad9190613a91565b611aea565b005b6105bc611c33565b6040516105c99190613325565b60405180910390f35b6105ec60048036038101906105e79190613ad1565b611c4d565b005b610608600480360381019061060391906132e9565b611d95565b005b610612611da7565b60405161061f9190613325565b60405180910390f35b610630611db4565b60405161063d9190613a2f565b60405180910390f35b610660600480360381019061065b91906132e9565b611dc7565b005b61066a6121f0565b6040516106779190613325565b60405180910390f35b61069a60048036038101906106959190613503565b6121f6565b6040516106a993929190613b24565b60405180910390f35b6106cc60048036038101906106c79190613503565b612258565b6040516106d99190613c19565b60405180910390f35b6106fc60048036038101906106f79190613c79565b6122f2565b005b61071860048036038101906107139190613503565b61233e565b005b610734600480360381019061072f9190613cd2565b6123c4565b6040516107419190613ec4565b60405180910390f35b61075261293c565b60405161075f9190613325565b60405180910390f35b610770612942565b8060028190555050565b60025481565b600e60003373ffffffffffffffffffffffffffffffffffffffff1673ffffffffffffffffffffffffffffffffffffffff16815260200190815260200160002060009054906101000a900460ff1661080c576040517f08c379a000000000000000000000000000000000000000000000000000000000815260040161080390613f43565b60405180910390fd5b60006003838154811061082257610821613f63565b5b9060005260206000209060040201905060008160010160009054906101000a90046fffffffffffffffffffffffffffffffff166fffffffffffffffffffffffffffffffff1614806108885750600115158160030160149054906101000a900460ff161515145b156108935750610a93565b60008242448460000160039054906101000a900475ffffffffffffffffffffffffffffffffffffffffffff1675ffffffffffffffffffffffffffffffffffffffffffff16406040516020016108eb9493929190613fa1565b6040516020818303038152906040528051906020012060001c905060006064826109159190614015565b9050600654811161094a57600d600081548092919061093390614075565b919050555061094283866129c9565b505050610a93565b60006003836109599190614015565b90506000818560000160009054906101000a900460ff1660ff16149050600081610a5a578560010160009054906101000a90046fffffffffffffffffffffffffffffffff166fffffffffffffffffffffffffffffffff16600b60008282546109c191906140bd565b9250508190555060008660000160009054906101000a900460ff1660ff161480156109ec5750600283145b80610a17575060018660000160009054906101000a900460ff1660ff16148015610a165750600083145b5b80610a42575060028660000160009054906101000a900460ff1660ff16148015610a415750600183145b5b15610a505760019050610a55565b600090505b610a80565b6000905060018660000160026101000a81548160ff021916908315150217905550600392505b610a8c86898386612bc1565b5050505050505b5050565b610a9f612942565b60001515600060149054906101000a900460ff16151514610af5576040517f08c379a0000000000000000000000000000000000000000000000000000000008152600401610aec9061413d565b60405180910390fd5b80600460008473ffffffffffffffffffffffffffffffffffffffff1673ffffffffffffffffffffffffffffffffffffffff168152602001908152602001600020600101819055505050565b610b48612942565b80600760006101000a81548173ffffffffffffffffffffffffffffffffffffffff021916908373ffffffffffffffffffffffffffffffffffffffff16021790555050565b600760009054906101000a900473ffffffffffffffffffffffffffffffffffffffff1681565b60095481565b610bc0612942565b6001600e60008373ffffffffffffffffffffffffffffffffffffffff1673ffffffffffffffffffffffffffffffffffffffff16815260200190815260200160002060006101000a81548160ff02191690831515021790555050565b600a5481565b610c29612942565b8173ffffffffffffffffffffffffffffffffffffffff1663095ea7b3600860009054906101000a900473ffffffffffffffffffffffffffffffffffffffff16836040518363ffffffff1660e01b8152600401610c8692919061415d565b6020604051808303816000875af1158015610ca5573d6000803e3d6000fd5b505050506040513d601f19601f82011682018060405250810190610cc9919061419b565b505050565b60038181548110610cde57600080fd5b90600052602060002090600402016000915090508060000160009054906101000a900460ff16908060000160019054906101000a900460ff16908060000160029054906101000a900460ff16908060000160039054906101000a900475ffffffffffffffffffffffffffffffffffffffffffff16908060010160009054906101000a90046fffffffffffffffffffffffffffffffff16908060010160109054906101000a90046fffffffffffffffffffffffffffffffff16908060020160009054906101000a900473ffffffffffffffffffffffffffffffffffffffff16908060030160009054906101000a900473ffffffffffffffffffffffffffffffffffffffff16908060030160149054906101000a900460ff16905089565b60008560ff161480610e0f575060018560ff16145b80610e1d575060028560ff16145b610e5c576040517f08c379a0000000000000000000000000000000000000000000000000000000008152600401610e5390614214565b60405180910390fd5b60008460000151600001519050600085600001516020015190506000339050600060149054906101000a900460ff16610eca576040517f08c379a0000000000000000000000000000000000000000000000000000000008152600401610ec190614280565b60405180910390fd5b600073ffffffffffffffffffffffffffffffffffffffff168373ffffffffffffffffffffffffffffffffffffffff1603610f39576040517f08c379a0000000000000000000000000000000000000000000000000000000008152600401610f30906142ec565b60405180910390fd5b600460008473ffffffffffffffffffffffffffffffffffffffff1673ffffffffffffffffffffffffffffffffffffffff16815260200190815260200160002060000160009054906101000a90046fffffffffffffffffffffffffffffffff166fffffffffffffffffffffffffffffffff1682101580156110295750600460008473ffffffffffffffffffffffffffffffffffffffff1673ffffffffffffffffffffffffffffffffffffffff16815260200190815260200160002060000160109054906101000a90046fffffffffffffffffffffffffffffffff166fffffffffffffffffffffffffffffffff168211155b611068576040517f08c379a000000000000000000000000000000000000000000000000000000000815260040161105f90614358565b60405180910390fd5b6000600f60008373ffffffffffffffffffffffffffffffffffffffff1673ffffffffffffffffffffffffffffffffffffffff16815260200190815260200160002054146110ea576040517f08c379a00000000000000000000000000000000000000000000000000000000081526004016110e1906143c4565b60405180910390fd5b600760009054906101000a900473ffffffffffffffffffffffffffffffffffffffff1673ffffffffffffffffffffffffffffffffffffffff166330f28b7a88883389896040518663ffffffff1660e01b815260040161114d95949392919061450f565b600060405180830381600087803b15801561116757600080fd5b505af115801561117b573d6000803e3d6000fd5b50505050600860009054906101000a900473ffffffffffffffffffffffffffffffffffffffff1673ffffffffffffffffffffffffffffffffffffffff166366168bd784846040518363ffffffff1660e01b81526004016111dc92919061415d565b600060405180830381600087803b1580156111f657600080fd5b505af115801561120a573d6000803e3d6000fd5b5050505060006003805490509050601060008373ffffffffffffffffffffffffffffffffffffffff1673ffffffffffffffffffffffffffffffffffffffff168152602001908152602001600020600001600081819054906101000a900463ffffffff168092919061127a9061455e565b91906101000a81548163ffffffff021916908363ffffffff1602179055505082601060008473ffffffffffffffffffffffffffffffffffffffff1673ffffffffffffffffffffffffffffffffffffffff16815260200190815260200160002060010160008282546112eb91906140bd565b9250508190555060c7601060008473ffffffffffffffffffffffffffffffffffffffff1673ffffffffffffffffffffffffffffffffffffffff168152602001908152602001600020600201600082825461134591906140bd565b92505081905550601060008373ffffffffffffffffffffffffffffffffffffffff1673ffffffffffffffffffffffffffffffffffffffff16815260200190815260200160002060030160018261139b91906140bd565b908060018154018082558091505060019003906000526020600020016000909190919091505580600f60008473ffffffffffffffffffffffffffffffffffffffff1673ffffffffffffffffffffffffffffffffffffffff1681526020019081526020016000208190555082600c600082825461141791906140bd565b925050819055508173ffffffffffffffffffffffffffffffffffffffff16817fb1a1600476c6f209d64efcfa8338a3b978a307f38dec70810a66064f693308b8858c886040516114699392919061458a565b60405180910390a360036040518061012001604052808b60ff168152602001600060ff1681526020016000151581526020014375ffffffffffffffffffffffffffffffffffffffffffff168152602001856fffffffffffffffffffffffffffffffff16815260200160006fffffffffffffffffffffffffffffffff1681526020018473ffffffffffffffffffffffffffffffffffffffff1681526020018673ffffffffffffffffffffffffffffffffffffffff16815260200160001515815250908060018154018082558091505060019003906000526020600020906004020160009091909190915060008201518160000160006101000a81548160ff021916908360ff16021790555060208201518160000160016101000a81548160ff021916908360ff16021790555060408201518160000160026101000a81548160ff02191690831515021790555060608201518160000160036101000a81548175ffffffffffffffffffffffffffffffffffffffffffff021916908375ffffffffffffffffffffffffffffffffffffffffffff16021790555060808201518160010160006101000a8154816fffffffffffffffffffffffffffffffff02191690836fffffffffffffffffffffffffffffffff16021790555060a08201518160010160106101000a8154816fffffffffffffffffffffffffffffffff02191690836fffffffffffffffffffffffffffffffff16021790555060c08201518160020160006101000a81548173ffffffffffffffffffffffffffffffffffffffff021916908373ffffffffffffffffffffffffffffffffffffffff16021790555060e08201518160030160006101000a81548173ffffffffffffffffffffffffffffffffffffffff021916908373ffffffffffffffffffffffffffffffffffffffff1602179055506101008201518160030160146101000a81548160ff0219169083151502179055505050505050505050505050565b60106020528060005260406000206000915090508060000160009054906101000a900463ffffffff16908060000160049054906101000a900463ffffffff16908060010154908060020154905084565b600f6020528060005260406000206000915090505481565b6000806000601060008573ffffffffffffffffffffffffffffffffffffffff1673ffffffffffffffffffffffffffffffffffffffff16815260200190815260200160002060000160009054906101000a900463ffffffff16601060008673ffffffffffffffffffffffffffffffffffffffff1673ffffffffffffffffffffffffffffffffffffffff16815260200190815260200160002060010154601060008773ffffffffffffffffffffffffffffffffffffffff1673ffffffffffffffffffffffffffffffffffffffff168152602001908152602001600020600201548263ffffffff1692509250925092509193909250565b600860009054906101000a900473ffffffffffffffffffffffffffffffffffffffff1681565b600560205281600052604060002081815481106118d757600080fd5b90600052602060002001600091509150505481565b6118f4612942565b6118fe60006130a3565b565b600e6020528060005260406000206000915054906101000a900460ff1681565b60065481565b60008060009054906101000a900473ffffffffffffffffffffffffffffffffffffffff16905090565b600d5481565b61195d612942565b8060018190555050565b61196f612942565b600060149054906101000a900460ff1615600060146101000a81548160ff021916908315150217905550565b6119a3612942565b600460008373ffffffffffffffffffffffffffffffffffffffff1673ffffffffffffffffffffffffffffffffffffffff16815260200190815260200160002060000160009054906101000a90046fffffffffffffffffffffffffffffffff166fffffffffffffffffffffffffffffffff16816fffffffffffffffffffffffffffffffff1611611a67576040517f08c379a0000000000000000000000000000000000000000000000000000000008152600401611a5e90614633565b60405180910390fd5b80600460008473ffffffffffffffffffffffffffffffffffffffff1673ffffffffffffffffffffffffffffffffffffffff16815260200190815260200160002060000160106101000a8154816fffffffffffffffffffffffffffffffff02191690836fffffffffffffffffffffffffffffffff1602179055505050565b60015481565b611af2612942565b600460008373ffffffffffffffffffffffffffffffffffffffff1673ffffffffffffffffffffffffffffffffffffffff16815260200190815260200160002060000160109054906101000a90046fffffffffffffffffffffffffffffffff166fffffffffffffffffffffffffffffffff16816fffffffffffffffffffffffffffffffff1610611bb6576040517f08c379a0000000000000000000000000000000000000000000000000000000008152600401611bad906146c5565b60405180910390fd5b80600460008473ffffffffffffffffffffffffffffffffffffffff1673ffffffffffffffffffffffffffffffffffffffff16815260200190815260200160002060000160006101000a8154816fffffffffffffffffffffffffffffffff02191690836fffffffffffffffffffffffffffffffff1602179055505050565b6000600380549050600c54611c4891906146e5565b905090565b611c55612942565b8073ffffffffffffffffffffffffffffffffffffffff166370a08231306040518263ffffffff1660e01b8152600401611c8e9190613a4a565b602060405180830381865afa158015611cab573d6000803e3d6000fd5b505050506040513d601f19601f82011682018060405250810190611ccf919061472b565b821115611d11576040517f08c379a0000000000000000000000000000000000000000000000000000000008152600401611d08906147a4565b60405180910390fd5b8073ffffffffffffffffffffffffffffffffffffffff1663a9059cbb84846040518363ffffffff1660e01b8152600401611d4c92919061415d565b6020604051808303816000875af1158015611d6b573d6000803e3d6000fd5b505050506040513d601f19601f82011682018060405250810190611d8f919061419b565b50505050565b611d9d612942565b8060068190555050565b6000600380549050905090565b600060149054906101000a900460ff1681565b611dcf612942565b600060149054906101000a900460ff16611e1e576040517f08c379a0000000000000000000000000000000000000000000000000000000008152600401611e1590614280565b60405180910390fd5b600060038281548110611e3457611e33613f63565b5b9060005260206000209060040201905060008160010160009054906101000a90046fffffffffffffffffffffffffffffffff166fffffffffffffffffffffffffffffffff16905060008111611ebe576040517f08c379a0000000000000000000000000000000000000000000000000000000008152600401611eb590614810565b60405180910390fd5b600015158260030160149054906101000a900460ff16151514611f16576040517f08c379a0000000000000000000000000000000000000000000000000000000008152600401611f0d9061487c565b60405180910390fd5b6154608260000160039054906101000a900475ffffffffffffffffffffffffffffffffffffffffffff16611f4a919061489c565b75ffffffffffffffffffffffffffffffffffffffffffff164311611fa3576040517f08c379a0000000000000000000000000000000000000000000000000000000008152600401611f9a90614932565b60405180910390fd5b60008260030160009054906101000a900473ffffffffffffffffffffffffffffffffffffffff1690506000611fd88383613167565b905060018460030160146101000a81548160ff021916908315150217905550808460010160106101000a8154816fffffffffffffffffffffffffffffffff02191690836fffffffffffffffffffffffffffffffff160217905550600860009054906101000a900473ffffffffffffffffffffffffffffffffffffffff1673ffffffffffffffffffffffffffffffffffffffff16639bc5c5098560030160009054906101000a900473ffffffffffffffffffffffffffffffffffffffff16838760020160009054906101000a900473ffffffffffffffffffffffffffffffffffffffff166040518463ffffffff1660e01b81526004016120d993929190614952565b600060405180830381600087803b1580156120f357600080fd5b505af1158015612107573d6000803e3d6000fd5b505050506000600f60008660020160009054906101000a900473ffffffffffffffffffffffffffffffffffffffff1673ffffffffffffffffffffffffffffffffffffffff1673ffffffffffffffffffffffffffffffffffffffff168152602001908152602001600020819055508360020160009054906101000a900473ffffffffffffffffffffffffffffffffffffffff1673ffffffffffffffffffffffffffffffffffffffff16857fb27522330a91a6a320aeeac4733cad91c61b5384667c37acb1855ace8dc34e5083856040516121e1929190614989565b60405180910390a35050505050565b600b5481565b60046020528060005260406000206000915090508060000160009054906101000a90046fffffffffffffffffffffffffffffffff16908060000160109054906101000a90046fffffffffffffffffffffffffffffffff16908060010154905083565b6060601060008373ffffffffffffffffffffffffffffffffffffffff1673ffffffffffffffffffffffffffffffffffffffff1681526020019081526020016000206003018054806020026020016040519081016040528092919081815260200182805480156122e657602002820191906000526020600020905b8154815260200190600101908083116122d2575b50505050509050919050565b6122fa612942565b80600860006101000a81548173ffffffffffffffffffffffffffffffffffffffff021916908373ffffffffffffffffffffffffffffffffffffffff16021790555050565b612346612942565b600073ffffffffffffffffffffffffffffffffffffffff168173ffffffffffffffffffffffffffffffffffffffff16036123b85760006040517f1e4fbdf70000000000000000000000000000000000000000000000000000000081526004016123af9190613a4a565b60405180910390fd5b6123c1816130a3565b50565b60608115612638576003805480602002602001604051908101604052809291908181526020016000905b8282101561262d5783829060005260206000209060040201604051806101200160405290816000820160009054906101000a900460ff1660ff1660ff1681526020016000820160019054906101000a900460ff1660ff1660ff1681526020016000820160029054906101000a900460ff161515151581526020016000820160039054906101000a900475ffffffffffffffffffffffffffffffffffffffffffff1675ffffffffffffffffffffffffffffffffffffffffffff1675ffffffffffffffffffffffffffffffffffffffffffff1681526020016001820160009054906101000a90046fffffffffffffffffffffffffffffffff166fffffffffffffffffffffffffffffffff166fffffffffffffffffffffffffffffffff1681526020016001820160109054906101000a90046fffffffffffffffffffffffffffffffff166fffffffffffffffffffffffffffffffff166fffffffffffffffffffffffffffffffff1681526020016002820160009054906101000a900473ffffffffffffffffffffffffffffffffffffffff1673ffffffffffffffffffffffffffffffffffffffff1673ffffffffffffffffffffffffffffffffffffffff1681526020016003820160009054906101000a900473ffffffffffffffffffffffffffffffffffffffff1673ffffffffffffffffffffffffffffffffffffffff1673ffffffffffffffffffffffffffffffffffffffff1681526020016003820160149054906101000a900460ff161515151581525050815260200190600101906123ee565b505050509050612936565b60008367ffffffffffffffff811115612654576126536136a1565b5b60405190808252806020026020018201604052801561268d57816020015b61267a6131e1565b8152602001906001900390816126725790505b509050600060016003805490506126a491906149b2565b90505b846003805490506126b891906149b2565b811115612930576000600382815481106126d5576126d4613f63565b5b9060005260206000209060040201905080604051806101200160405290816000820160009054906101000a900460ff1660ff1660ff1681526020016000820160019054906101000a900460ff1660ff1660ff1681526020016000820160029054906101000a900460ff161515151581526020016000820160039054906101000a900475ffffffffffffffffffffffffffffffffffffffffffff1675ffffffffffffffffffffffffffffffffffffffffffff1675ffffffffffffffffffffffffffffffffffffffffffff1681526020016001820160009054906101000a90046fffffffffffffffffffffffffffffffff166fffffffffffffffffffffffffffffffff166fffffffffffffffffffffffffffffffff1681526020016001820160109054906101000a90046fffffffffffffffffffffffffffffffff166fffffffffffffffffffffffffffffffff166fffffffffffffffffffffffffffffffff1681526020016002820160009054906101000a900473ffffffffffffffffffffffffffffffffffffffff1673ffffffffffffffffffffffffffffffffffffffff1673ffffffffffffffffffffffffffffffffffffffff1681526020016003820160009054906101000a900473ffffffffffffffffffffffffffffffffffffffff1673ffffffffffffffffffffffffffffffffffffffff1673ffffffffffffffffffffffffffffffffffffffff1681526020016003820160149054906101000a900460ff16151515158152505083838151811061291157612910613f63565b5b6020026020010181905250508080612928906149e6565b9150506126a7565b50809150505b92915050565b600c5481565b61294a6131d9565b73ffffffffffffffffffffffffffffffffffffffff16612968611926565b73ffffffffffffffffffffffffffffffffffffffff16146129c75761298b6131d9565b6040517f118cdaa70000000000000000000000000000000000000000000000000000000081526004016129be9190613a4a565b60405180910390fd5b565b6000600f60008460020160009054906101000a900473ffffffffffffffffffffffffffffffffffffffff1673ffffffffffffffffffffffffffffffffffffffff1673ffffffffffffffffffffffffffffffffffffffff1681526020019081526020016000208190555060018260030160146101000a81548160ff02191690831515021790555060008260010160106101000a8154816fffffffffffffffffffffffffffffffff02191690836fffffffffffffffffffffffffffffffff16021790555060008260000160009054906101000a900460ff1660ff1690506000808203612ab65760019050612acd565b60018203612ac75760029050612acc565b600090505b5b808460000160016101000a81548160ff021916908360ff1602179055508360020160009054906101000a900473ffffffffffffffffffffffffffffffffffffffff1673ffffffffffffffffffffffffffffffffffffffff16837fb4c66c01f6f9d292ef20e68c6bc46d689b0872b7164dd3ea61d5a88ab23b3a388660010160009054906101000a90046fffffffffffffffffffffffffffffffff168760000160009054906101000a900460ff168560008a60030160009054906101000a900473ffffffffffffffffffffffffffffffffffffffff16604051612bb3959493929190614a7b565b60405180910390a350505050565b600060028560010160009054906101000a90046fffffffffffffffffffffffffffffffff16612bf09190614ace565b6fffffffffffffffffffffffffffffffff169050600083612c12576000612c14565b815b90506000600f60008860020160009054906101000a900473ffffffffffffffffffffffffffffffffffffffff1673ffffffffffffffffffffffffffffffffffffffff1673ffffffffffffffffffffffffffffffffffffffff1681526020019081526020016000208190555060018660030160146101000a81548160ff021916908315150217905550808660010160106101000a8154816fffffffffffffffffffffffffffffffff02191690836fffffffffffffffffffffffffffffffff160217905550828660000160016101000a81548160ff021916908360ff1602179055506000811115612e9457600a6000815480929190612d1090614075565b9190505550601060008760020160009054906101000a900473ffffffffffffffffffffffffffffffffffffffff1673ffffffffffffffffffffffffffffffffffffffff1673ffffffffffffffffffffffffffffffffffffffff168152602001908152602001600020600001600481819054906101000a900463ffffffff1680929190612d9b9061455e565b91906101000a81548163ffffffff021916908363ffffffff16021790555050600860009054906101000a900473ffffffffffffffffffffffffffffffffffffffff1673ffffffffffffffffffffffffffffffffffffffff16639bc5c5098760030160009054906101000a900473ffffffffffffffffffffffffffffffffffffffff16848960020160009054906101000a900473ffffffffffffffffffffffffffffffffffffffff166040518463ffffffff1660e01b8152600401612e6193929190614952565b600060405180830381600087803b158015612e7b57600080fd5b505af1158015612e8f573d6000803e3d6000fd5b505050505b60038303612fcb57600860009054906101000a900473ffffffffffffffffffffffffffffffffffffffff1673ffffffffffffffffffffffffffffffffffffffff16639bc5c5098760030160009054906101000a900473ffffffffffffffffffffffffffffffffffffffff168860010160009054906101000a90046fffffffffffffffffffffffffffffffff168960020160009054906101000a900473ffffffffffffffffffffffffffffffffffffffff166040518463ffffffff1660e01b8152600401612f6393929190614b0b565b600060405180830381600087803b158015612f7d57600080fd5b505af1158015612f91573d6000803e3d6000fd5b505050508560010160009054906101000a90046fffffffffffffffffffffffffffffffff166fffffffffffffffffffffffffffffffff1690505b8560020160009054906101000a900473ffffffffffffffffffffffffffffffffffffffff1673ffffffffffffffffffffffffffffffffffffffff16857fb4c66c01f6f9d292ef20e68c6bc46d689b0872b7164dd3ea61d5a88ab23b3a388860010160009054906101000a90046fffffffffffffffffffffffffffffffff168960000160009054906101000a900460ff1687868c60030160009054906101000a900473ffffffffffffffffffffffffffffffffffffffff16604051613093959493929190614b42565b60405180910390a3505050505050565b60008060009054906101000a900473ffffffffffffffffffffffffffffffffffffffff169050816000806101000a81548173ffffffffffffffffffffffffffffffffffffffff021916908373ffffffffffffffffffffffffffffffffffffffff1602179055508173ffffffffffffffffffffffffffffffffffffffff168173ffffffffffffffffffffffffffffffffffffffff167f8be0079c531659141344cd1fd0a4f28419497f9722a3daafe3b4186f6b6457e060405160405180910390a35050565b6000612710600460008473ffffffffffffffffffffffffffffffffffffffff1673ffffffffffffffffffffffffffffffffffffffff168152602001908152602001600020600101546127106131bc91906149b2565b846131c79190614b95565b6131d191906146e5565b905092915050565b600033905090565b604051806101200160405280600060ff168152602001600060ff168152602001600015158152602001600075ffffffffffffffffffffffffffffffffffffffffffff16815260200160006fffffffffffffffffffffffffffffffff16815260200160006fffffffffffffffffffffffffffffffff168152602001600073ffffffffffffffffffffffffffffffffffffffff168152602001600073ffffffffffffffffffffffffffffffffffffffff1681526020016000151581525090565b6000604051905090565b600080fd5b600080fd5b6000819050919050565b6132c6816132b3565b81146132d157600080fd5b50565b6000813590506132e3816132bd565b92915050565b6000602082840312156132ff576132fe6132a9565b5b600061330d848285016132d4565b91505092915050565b61331f816132b3565b82525050565b600060208201905061333a6000830184613316565b92915050565b60008060408385031215613357576133566132a9565b5b6000613365858286016132d4565b9250506020613376858286016132d4565b9150509250929050565b600073ffffffffffffffffffffffffffffffffffffffff82169050919050565b60006133ab82613380565b9050919050565b6133bb816133a0565b81146133c657600080fd5b50565b6000813590506133d8816133b2565b92915050565b600080604083850312156133f5576133f46132a9565b5b6000613403858286016133c9565b9250506020613414858286016132d4565b9150509250929050565b6000613429826133a0565b9050919050565b6134398161341e565b811461344457600080fd5b50565b60008135905061345681613430565b92915050565b600060208284031215613472576134716132a9565b5b600061348084828501613447565b91505092915050565b6000819050919050565b60006134ae6134a96134a484613380565b613489565b613380565b9050919050565b60006134c082613493565b9050919050565b60006134d2826134b5565b9050919050565b6134e2816134c7565b82525050565b60006020820190506134fd60008301846134d9565b92915050565b600060208284031215613519576135186132a9565b5b6000613527848285016133c9565b91505092915050565b600060ff82169050919050565b61354681613530565b82525050565b60008115159050919050565b6135618161354c565b82525050565b600075ffffffffffffffffffffffffffffffffffffffffffff82169050919050565b61359281613567565b82525050565b60006fffffffffffffffffffffffffffffffff82169050919050565b6135bd81613598565b82525050565b6135cc816133a0565b82525050565b6000610120820190506135e8600083018c61353d565b6135f5602083018b61353d565b613602604083018a613558565b61360f6060830189613589565b61361c60808301886135b4565b61362960a08301876135b4565b61363660c08301866135c3565b61364360e08301856135c3565b613651610100830184613558565b9a9950505050505050505050565b61366881613530565b811461367357600080fd5b50565b6000813590506136858161365f565b92915050565b600080fd5b6000601f19601f8301169050919050565b7f4e487b7100000000000000000000000000000000000000000000000000000000600052604160045260246000fd5b6136d982613690565b810181811067ffffffffffffffff821117156136f8576136f76136a1565b5b80604052505050565b600061370b61329f565b905061371782826136d0565b919050565b6000604082840312156137325761373161368b565b5b61373c6040613701565b9050600061374c848285016133c9565b6000830152506020613760848285016132d4565b60208301525092915050565b6000608082840312156137825761378161368b565b5b61378c6060613701565b9050600061379c8482850161371c565b60008301525060406137b0848285016132d4565b60208301525060606137c4848285016132d4565b60408301525092915050565b600080fd5b6000604082840312156137eb576137ea6137d0565b5b81905092915050565b600080fd5b600080fd5b600080fd5b60008083601f840112613819576138186137f4565b5b8235905067ffffffffffffffff811115613836576138356137f9565b5b602083019150836001820283011115613852576138516137fe565b5b9250929050565b60008060008060006101008688031215613876576138756132a9565b5b600061388488828901613676565b95505060206138958882890161376c565b94505060a06138a6888289016137d5565b93505060e086013567ffffffffffffffff8111156138c7576138c66132ae565b5b6138d388828901613803565b92509250509295509295909350565b600063ffffffff82169050919050565b6138fb816138e2565b82525050565b600060808201905061391660008301876138f2565b61392360208301866138f2565b6139306040830185613316565b61393d6060830184613316565b95945050505050565b600060608201905061395b6000830186613316565b6139686020830185613316565b6139756040830184613316565b949350505050565b6000613988826134b5565b9050919050565b6139988161397d565b82525050565b60006020820190506139b3600083018461398f565b92915050565b6000819050919050565b6139cc816139b9565b81146139d757600080fd5b50565b6000813590506139e9816139c3565b92915050565b60008060408385031215613a0657613a056132a9565b5b6000613a14858286016139da565b9250506020613a25858286016132d4565b9150509250929050565b6000602082019050613a446000830184613558565b92915050565b6000602082019050613a5f60008301846135c3565b92915050565b613a6e81613598565b8114613a7957600080fd5b50565b600081359050613a8b81613a65565b92915050565b60008060408385031215613aa857613aa76132a9565b5b6000613ab6858286016133c9565b9250506020613ac785828601613a7c565b9150509250929050565b600080600060608486031215613aea57613ae96132a9565b5b6000613af8868287016133c9565b9350506020613b09868287016132d4565b9250506040613b1a868287016133c9565b9150509250925092565b6000606082019050613b3960008301866135b4565b613b4660208301856135b4565b613b536040830184613316565b949350505050565b600081519050919050565b600082825260208201905092915050565b6000819050602082019050919050565b613b90816132b3565b82525050565b6000613ba28383613b87565b60208301905092915050565b6000602082019050919050565b6000613bc682613b5b565b613bd08185613b66565b9350613bdb83613b77565b8060005b83811015613c0c578151613bf38882613b96565b9750613bfe83613bae565b925050600181019050613bdf565b5085935050505092915050565b60006020820190508181036000830152613c338184613bbb565b905092915050565b6000613c46826133a0565b9050919050565b613c5681613c3b565b8114613c6157600080fd5b50565b600081359050613c7381613c4d565b92915050565b600060208284031215613c8f57613c8e6132a9565b5b6000613c9d84828501613c64565b91505092915050565b613caf8161354c565b8114613cba57600080fd5b50565b600081359050613ccc81613ca6565b92915050565b60008060408385031215613ce957613ce86132a9565b5b6000613cf7858286016132d4565b9250506020613d0885828601613cbd565b9150509250929050565b600081519050919050565b600082825260208201905092915050565b6000819050602082019050919050565b613d4781613530565b82525050565b613d568161354c565b82525050565b613d6581613567565b82525050565b613d7481613598565b82525050565b613d83816133a0565b82525050565b61012082016000820151613da06000850182613d3e565b506020820151613db36020850182613d3e565b506040820151613dc66040850182613d4d565b506060820151613dd96060850182613d5c565b506080820151613dec6080850182613d6b565b5060a0820151613dff60a0850182613d6b565b5060c0820151613e1260c0850182613d7a565b5060e0820151613e2560e0850182613d7a565b50610100820151613e3a610100850182613d4d565b50505050565b6000613e4c8383613d89565b6101208301905092915050565b6000602082019050919050565b6000613e7182613d12565b613e7b8185613d1d565b9350613e8683613d2e565b8060005b83811015613eb7578151613e9e8882613e40565b9750613ea983613e59565b925050600181019050613e8a565b5085935050505092915050565b60006020820190508181036000830152613ede8184613e66565b905092915050565b600082825260208201905092915050565b7f43616c6c6572206973206e6f7420617574686f72697a65640000000000000000600082015250565b6000613f2d601883613ee6565b9150613f3882613ef7565b602082019050919050565b60006020820190508181036000830152613f5c81613f20565b9050919050565b7f4e487b7100000000000000000000000000000000000000000000000000000000600052603260045260246000fd5b613f9b816139b9565b82525050565b6000608082019050613fb66000830187613316565b613fc36020830186613316565b613fd06040830185613316565b613fdd6060830184613f92565b95945050505050565b7f4e487b7100000000000000000000000000000000000000000000000000000000600052601260045260246000fd5b6000614020826132b3565b915061402b836132b3565b92508261403b5761403a613fe6565b5b828206905092915050565b7f4e487b7100000000000000000000000000000000000000000000000000000000600052601160045260246000fd5b6000614080826132b3565b91507fffffffffffffffffffffffffffffffffffffffffffffffffffffffffffffffff82036140b2576140b1614046565b5b600182019050919050565b60006140c8826132b3565b91506140d3836132b3565b92508282019050808211156140eb576140ea614046565b5b92915050565b7f4265747320696e2070656e64696e670000000000000000000000000000000000600082015250565b6000614127600f83613ee6565b9150614132826140f1565b602082019050919050565b600060208201905081810360008301526141568161411a565b9050919050565b600060408201905061417260008301856135c3565b61417f6020830184613316565b9392505050565b60008151905061419581613ca6565b92915050565b6000602082840312156141b1576141b06132a9565b5b60006141bf84828501614186565b91505092915050565b7f496e76616c696420736964650000000000000000000000000000000000000000600082015250565b60006141fe600c83613ee6565b9150614209826141c8565b602082019050919050565b6000602082019050818103600083015261422d816141f1565b9050919050565b7f47616d65206973206e6f74206c69766500000000000000000000000000000000600082015250565b600061426a601083613ee6565b915061427582614234565b602082019050919050565b600060208201905081810360008301526142998161425d565b9050919050565b7f546f6b656e20616464726573732063616e6e6f74206265203000000000000000600082015250565b60006142d6601983613ee6565b91506142e1826142a0565b602082019050919050565b60006020820190508181036000830152614305816142c9565b9050919050565b7f42657420616d6f756e74206e6f742077697468696e2072616e67650000000000600082015250565b6000614342601b83613ee6565b915061434d8261430c565b602082019050919050565b6000602082019050818103600083015261437181614335565b9050919050565b7f596f75206861766520612070656e64696e672062657400000000000000000000600082015250565b60006143ae601683613ee6565b91506143b982614378565b602082019050919050565b600060208201905081810360008301526143dd816143a1565b9050919050565b6040820160008201516143fa6000850182613d7a565b50602082015161440d6020850182613b87565b50505050565b60808201600082015161442960008501826143e4565b50602082015161443c6040850182613b87565b50604082015161444f6060850182613b87565b50505050565b600061446460208401846133c9565b905092915050565b600061447b60208401846132d4565b905092915050565b604082016144946000830183614455565b6144a16000850182613d7a565b506144af602083018361446c565b6144bc6020850182613b87565b50505050565b600082825260208201905092915050565b82818337600083830152505050565b60006144ee83856144c2565b93506144fb8385846144d3565b61450483613690565b840190509392505050565b6000610100820190506145256000830188614413565b6145326080830187614483565b61453f60c08301866135c3565b81810360e08301526145528184866144e2565b90509695505050505050565b6000614569826138e2565b915063ffffffff820361457f5761457e614046565b5b600182019050919050565b600060608201905061459f6000830186613316565b6145ac602083018561353d565b6145b960408301846135c3565b949350505050565b7f4d617820616d6f756e74206d7573742062652067726561746572207468616e2060008201527f6d696e20616d6f756e7400000000000000000000000000000000000000000000602082015250565b600061461d602a83613ee6565b9150614628826145c1565b604082019050919050565b6000602082019050818103600083015261464c81614610565b9050919050565b7f4d696e20616d6f756e74206d757374206265206c657373207468616e206d617860008201527f20616d6f756e7400000000000000000000000000000000000000000000000000602082015250565b60006146af602783613ee6565b91506146ba82614653565b604082019050919050565b600060208201905081810360008301526146de816146a2565b9050919050565b60006146f0826132b3565b91506146fb836132b3565b92508261470b5761470a613fe6565b5b828204905092915050565b600081519050614725816132bd565b92915050565b600060208284031215614741576147406132a9565b5b600061474f84828501614716565b91505092915050565b7f5769746864726177616c2065786365656473206c696d69740000000000000000600082015250565b600061478e601883613ee6565b915061479982614758565b602082019050919050565b600060208201905081810360008301526147bd81614781565b9050919050565b7f42657420646f6573206e6f742065786973740000000000000000000000000000600082015250565b60006147fa601283613ee6565b9150614805826147c4565b602082019050919050565b60006020820190508181036000830152614829816147ed565b9050919050565b7f42657420697320736574746c656420616c726561647900000000000000000000600082015250565b6000614866601683613ee6565b915061487182614830565b602082019050919050565b6000602082019050818103600083015261489581614859565b9050919050565b60006148a782613567565b91506148b283613567565b9250828201905075ffffffffffffffffffffffffffffffffffffffffffff8111156148e0576148df614046565b5b92915050565b7f57616974206265666f72652072657175657374696e6720726566756e64000000600082015250565b600061491c601d83613ee6565b9150614927826148e6565b602082019050919050565b6000602082019050818103600083015261494b8161490f565b9050919050565b600060608201905061496760008301866135c3565b6149746020830185613316565b61498160408301846135c3565b949350505050565b600060408201905061499e6000830185613316565b6149ab60208301846135c3565b9392505050565b60006149bd826132b3565b91506149c8836132b3565b92508282039050818111156149e0576149df614046565b5b92915050565b60006149f1826132b3565b915060008203614a0457614a03614046565b5b600182039050919050565b6000614a2a614a25614a2084613598565b613489565b6132b3565b9050919050565b614a3a81614a0f565b82525050565b6000819050919050565b6000614a65614a60614a5b84614a40565b613489565b6132b3565b9050919050565b614a7581614a4a565b82525050565b600060a082019050614a906000830188614a31565b614a9d602083018761353d565b614aaa604083018661353d565b614ab76060830185614a6c565b614ac460808301846135c3565b9695505050505050565b6000614ad982613598565b9150614ae483613598565b9250828202614af281613598565b9150808214614b0457614b03614046565b5b5092915050565b6000606082019050614b2060008301866135c3565b614b2d6020830185614a31565b614b3a60408301846135c3565b949350505050565b600060a082019050614b576000830188614a31565b614b64602083018761353d565b614b71604083018661353d565b614b7e6060830185613316565b614b8b60808301846135c3565b9695505050505050565b6000614ba0826132b3565b9150614bab836132b3565b9250828202614bb9816132b3565b91508282048414831517614bd057614bcf614046565b5b509291505056fea2646970667358221220407f11feb00dceed175a71c60de117ebad7da337cd50d7fc7cb3b97afc8ae0c664736f6c634300081c0033",
  "linkReferences": {},
  "deployedLinkReferences": {}
}