{
  "_format": "hh-sol-artifact-1",
  "contractName": "Treasury",
  "sourceName": "contracts/Treasury.sol",
  "abi": [
    {
      "inputs": [],
      "stateMutability": "nonpayable",
      "type": "constructor"
    },
    {
      "inputs": [
        {
          "internalType": "address",
          "name": "owner",
          "type": "address"
        }
      ],
      "name": "OwnableInvalidOwner",
      "type": "error"
    },
    {
      "inputs": [
        {
          "internalType": "address",
          "name": "account",
          "type": "address"
        }
      ],
      "name": "OwnableUnauthorizedAccount",
      "type": "error"
    },
    {
      "anonymous": false,
      "inputs": [
        {
          "indexed": true,
          "internalType": "address",
          "name": "gameContract",
          "type": "address"
        },
        {
          "indexed": false,
          "internalType": "bool",
          "name": "status",
          "type": "bool"
        }
      ],
      "name": "ContractAuthorized",
      "type": "event"
    },
    {
      "anonymous": false,
      "inputs": [
        {
          "indexed": true,
          "internalType": "address",
          "name": "previousOwner",
          "type": "address"
        },
        {
          "indexed": true,
          "internalType": "address",
          "name": "newOwner",
          "type": "address"
        }
      ],
      "name": "OwnershipTransferred",
      "type": "event"
    },
    {
      "anonymous": false,
      "inputs": [
        {
          "indexed": true,
          "internalType": "address",
          "name": "token",
          "type": "address"
        },
        {
          "indexed": false,
          "internalType": "bool",
          "name": "status",
          "type": "bool"
        }
      ],
      "name": "TokenAccepted",
      "type": "event"
    },
    {
      "anonymous": false,
      "inputs": [
        {
          "indexed": true,
          "internalType": "address",
          "name": "gameContract",
          "type": "address"
        },
        {
          "indexed": true,
          "internalType": "address",
          "name": "token",
          "type": "address"
        },
        {
          "indexed": false,
          "internalType": "uint256",
          "name": "amount",
          "type": "uint256"
        }
      ],
      "name": "TokensDeposited",
      "type": "event"
    },
    {
      "anonymous": false,
      "inputs": [
        {
          "indexed": true,
          "internalType": "address",
          "name": "gameContract",
          "type": "address"
        },
        {
          "indexed": true,
          "internalType": "address",
          "name": "recipient",
          "type": "address"
        },
        {
          "indexed": true,
          "internalType": "address",
          "name": "token",
          "type": "address"
        },
        {
          "indexed": false,
          "internalType": "uint256",
          "name": "amount",
          "type": "uint256"
        }
      ],
      "name": "TokensWithdrawn",
      "type": "event"
    },
    {
      "inputs": [
        {
          "internalType": "address",
          "name": "",
          "type": "address"
        }
      ],
      "name": "acceptedTokens",
      "outputs": [
        {
          "internalType": "bool",
          "name": "",
          "type": "bool"
        }
      ],
      "stateMutability": "view",
      "type": "function"
    },
    {
      "inputs": [
        {
          "internalType": "uint256",
          "name": "",
          "type": "uint256"
        }
      ],
      "name": "acceptedTokensList",
      "outputs": [
        {
          "internalType": "address",
          "name": "",
          "type": "address"
        }
      ],
      "stateMutability": "view",
      "type": "function"
    },
    {
      "inputs": [
        {
          "internalType": "address",
          "name": "",
          "type": "address"
        }
      ],
      "name": "authorizedContracts",
      "outputs": [
        {
          "internalType": "bool",
          "name": "",
          "type": "bool"
        }
      ],
      "stateMutability": "view",
      "type": "function"
    },
    {
      "inputs": [
        {
          "internalType": "uint256",
          "name": "",
          "type": "uint256"
        }
      ],
      "name": "authorizedContractsList",
      "outputs": [
        {
          "internalType": "address",
          "name": "",
          "type": "address"
        }
      ],
      "stateMutability": "view",
      "type": "function"
    },
    {
      "inputs": [
        {
          "internalType": "address",
          "name": "token",
          "type": "address"
        },
        {
          "internalType": "uint256",
          "name": "amount",
          "type": "uint256"
        }
      ],
      "name": "depositTokens",
      "outputs": [],
      "stateMutability": "nonpayable",
      "type": "function"
    },
    {
      "inputs": [
        {
          "internalType": "address",
          "name": "token",
          "type": "address"
        },
        {
          "internalType": "uint256",
          "name": "amount",
          "type": "uint256"
        },
        {
          "internalType": "address",
          "name": "recipient",
          "type": "address"
        }
      ],
      "name": "emergencyWithdraw",
      "outputs": [],
      "stateMutability": "nonpayable",
      "type": "function"
    },
    {
      "inputs": [
        {
          "internalType": "address",
          "name": "",
          "type": "address"
        },
        {
          "internalType": "address",
          "name": "token",
          "type": "address"
        }
      ],
      "name": "gameStats",
      "outputs": [
        {
          "internalType": "uint256",
          "name": "totalDeposits",
          "type": "uint256"
        },
        {
          "internalType": "uint256",
          "name": "totalWithdrawals",
          "type": "uint256"
        }
      ],
      "stateMutability": "view",
      "type": "function"
    },
    {
      "inputs": [],
      "name": "owner",
      "outputs": [
        {
          "internalType": "address",
          "name": "",
          "type": "address"
        }
      ],
      "stateMutability": "view",
      "type": "function"
    },
    {
      "inputs": [],
      "name": "renounceOwnership",
      "outputs": [],
      "stateMutability": "nonpayable",
      "type": "function"
    },
    {
      "inputs": [
        {
          "internalType": "address",
          "name": "token",
          "type": "address"
        },
        {
          "internalType": "bool",
          "name": "status",
          "type": "bool"
        }
      ],
      "name": "setAcceptedToken",
      "outputs": [],
      "stateMutability": "nonpayable",
      "type": "function"
    },
    {
      "inputs": [
        {
          "internalType": "address",
          "name": "gameContract",
          "type": "address"
        },
        {
          "internalType": "bool",
          "name": "status",
          "type": "bool"
        }
      ],
      "name": "setAuthorizedContract",
      "outputs": [],
      "stateMutability": "nonpayable",
      "type": "function"
    },
    {
      "inputs": [],
      "name": "totalGlobalDeposits",
      "outputs": [
        {
          "internalType": "uint256",
          "name": "",
          "type": "uint256"
        }
      ],
      "stateMutability": "view",
      "type": "function"
    },
    {
      "inputs": [],
      "name": "totalGlobalWithdrawals",
      "outputs": [
        {
          "internalType": "uint256",
          "name": "",
          "type": "uint256"
        }
      ],
      "stateMutability": "view",
      "type": "function"
    },
    {
      "inputs": [
        {
          "internalType": "address",
          "name": "newOwner",
          "type": "address"
        }
      ],
      "name": "transferOwnership",
      "outputs": [],
      "stateMutability": "nonpayable",
      "type": "function"
    },
    {
      "inputs": [
        {
          "internalType": "address",
          "name": "token",
          "type": "address"
        },
        {
          "internalType": "uint256",
          "name": "amount",
          "type": "uint256"
        },
        {
          "internalType": "address",
          "name": "recipient",
          "type": "address"
        }
      ],
      "name": "withdrawTokens",
      "outputs": [],
      "stateMutability": "nonpayable",
      "type": "function"
    }
  ],
  "bytecode": "0x608060405234801561001057600080fd5b5033600073ffffffffffffffffffffffffffffffffffffffff168173ffffffffffffffffffffffffffffffffffffffff16036100845760006040517f1e4fbdf700000000000000000000000000000000000000000000000000000000815260040161007b919061019e565b60405180910390fd5b6100938161009960201b60201c565b506101b9565b60008060009054906101000a900473ffffffffffffffffffffffffffffffffffffffff169050816000806101000a81548173ffffffffffffffffffffffffffffffffffffffff021916908373ffffffffffffffffffffffffffffffffffffffff1602179055508173ffffffffffffffffffffffffffffffffffffffff168173ffffffffffffffffffffffffffffffffffffffff167f8be0079c531659141344cd1fd0a4f28419497f9722a3daafe3b4186f6b6457e060405160405180910390a35050565b600073ffffffffffffffffffffffffffffffffffffffff82169050919050565b60006101888261015d565b9050919050565b6101988161017d565b82525050565b60006020820190506101b3600083018461018f565b92915050565b61186a806101c86000396000f3fe608060405234801561001057600080fd5b50600436106100f45760003560e01c80639bc5c50911610097578063d5b9221b11610066578063d5b9221b14610270578063f2fa7392146102a0578063f2fde38b146102bc578063f5d0a7ba146102d8576100f4565b80639bc5c509146101d8578063a46adce9146101f4578063aa76897d14610224578063c997dbca14610254576100f4565b8063715018a6116100d3578063715018a61461014f578063756787551461015957806382dc4a051461018a5780638da5cb5b146101ba576100f4565b8062fdf5e0146100f9578063551512de1461011757806366168bd714610133575b600080fd5b6101016102f6565b60405161010e9190611273565b60405180910390f35b610131600480360381019061012c919061131d565b6102fc565b005b61014d60048036038101906101489190611370565b6104c6565b005b6101576107ba565b005b610173600480360381019061016e91906113b0565b6107ce565b6040516101819291906113f0565b60405180910390f35b6101a4600480360381019061019f9190611419565b6107ff565b6040516101b19190611461565b60405180910390f35b6101c261081f565b6040516101cf919061148b565b60405180910390f35b6101f260048036038101906101ed919061131d565b610848565b005b61020e600480360381019061020991906114a6565b610bc1565b60405161021b919061148b565b60405180910390f35b61023e600480360381019061023991906114a6565b610c00565b60405161024b919061148b565b60405180910390f35b61026e600480360381019061026991906114ff565b610c3f565b005b61028a60048036038101906102859190611419565b610e4d565b6040516102979190611461565b60405180910390f35b6102ba60048036038101906102b591906114ff565b610e6d565b005b6102d660048036038101906102d19190611419565b61107b565b005b6102e0611101565b6040516102ed9190611273565b60405180910390f35b60025481565b610304611107565b600460008473ffffffffffffffffffffffffffffffffffffffff1673ffffffffffffffffffffffffffffffffffffffff16815260200190815260200160002060009054906101000a900460ff16610390576040517f08c379a00000000000000000000000000000000000000000000000000000000081526004016103879061159c565b60405180910390fd5b600082116103d3576040517f08c379a00000000000000000000000000000000000000000000000000000000081526004016103ca90611608565b60405180910390fd5b600073ffffffffffffffffffffffffffffffffffffffff168173ffffffffffffffffffffffffffffffffffffffff1603610442576040517f08c379a000000000000000000000000000000000000000000000000000000000815260040161043990611674565b60405180910390fd5b8273ffffffffffffffffffffffffffffffffffffffff1663a9059cbb82846040518363ffffffff1660e01b815260040161047d929190611694565b6020604051808303816000875af115801561049c573d6000803e3d6000fd5b505050506040513d601f19601f820116820180604052508101906104c091906116d2565b50505050565b600660003373ffffffffffffffffffffffffffffffffffffffff1673ffffffffffffffffffffffffffffffffffffffff16815260200190815260200160002060009054906101000a900460ff16610552576040517f08c379a00000000000000000000000000000000000000000000000000000000081526004016105499061174b565b60405180910390fd5b600460008373ffffffffffffffffffffffffffffffffffffffff1673ffffffffffffffffffffffffffffffffffffffff16815260200190815260200160002060009054906101000a900460ff166105de576040517f08c379a00000000000000000000000000000000000000000000000000000000081526004016105d59061159c565b60405180910390fd5b60008111610621576040517f08c379a000000000000000000000000000000000000000000000000000000000815260040161061890611608565b60405180910390fd5b8173ffffffffffffffffffffffffffffffffffffffff166323b872dd3330846040518463ffffffff1660e01b815260040161065e9392919061176b565b6020604051808303816000875af115801561067d573d6000803e3d6000fd5b505050506040513d601f19601f820116820180604052508101906106a191906116d2565b5080600760003373ffffffffffffffffffffffffffffffffffffffff1673ffffffffffffffffffffffffffffffffffffffff16815260200190815260200160002060008473ffffffffffffffffffffffffffffffffffffffff1673ffffffffffffffffffffffffffffffffffffffff168152602001908152602001600020600001600082825461073191906117d1565b92505081905550806001600082825461074a91906117d1565b925050819055508173ffffffffffffffffffffffffffffffffffffffff163373ffffffffffffffffffffffffffffffffffffffff167fcbc4a4091b012bb1329c38bbbb15455f5cac5aa3673da0a7f38cd61a4f495517836040516107ae9190611273565b60405180910390a35050565b6107c2611107565b6107cc600061118e565b565b6007602052816000526040600020602052806000526040600020600091509150508060000154908060010154905082565b60046020528060005260406000206000915054906101000a900460ff1681565b60008060009054906101000a900473ffffffffffffffffffffffffffffffffffffffff16905090565b600660003373ffffffffffffffffffffffffffffffffffffffff1673ffffffffffffffffffffffffffffffffffffffff16815260200190815260200160002060009054906101000a900460ff166108d4576040517f08c379a00000000000000000000000000000000000000000000000000000000081526004016108cb9061174b565b60405180910390fd5b600460008473ffffffffffffffffffffffffffffffffffffffff1673ffffffffffffffffffffffffffffffffffffffff16815260200190815260200160002060009054906101000a900460ff16610960576040517f08c379a00000000000000000000000000000000000000000000000000000000081526004016109579061159c565b60405180910390fd5b600082116109a3576040517f08c379a000000000000000000000000000000000000000000000000000000000815260040161099a90611608565b60405180910390fd5b600073ffffffffffffffffffffffffffffffffffffffff168173ffffffffffffffffffffffffffffffffffffffff1603610a12576040517f08c379a0000000000000000000000000000000000000000000000000000000008152600401610a0990611674565b60405180910390fd5b8273ffffffffffffffffffffffffffffffffffffffff1663a9059cbb82846040518363ffffffff1660e01b8152600401610a4d929190611694565b6020604051808303816000875af1158015610a6c573d6000803e3d6000fd5b505050506040513d601f19601f82011682018060405250810190610a9091906116d2565b5081600760003373ffffffffffffffffffffffffffffffffffffffff1673ffffffffffffffffffffffffffffffffffffffff16815260200190815260200160002060008573ffffffffffffffffffffffffffffffffffffffff1673ffffffffffffffffffffffffffffffffffffffff1681526020019081526020016000206001016000828254610b2091906117d1565b925050819055508160026000828254610b3991906117d1565b925050819055508273ffffffffffffffffffffffffffffffffffffffff168173ffffffffffffffffffffffffffffffffffffffff163373ffffffffffffffffffffffffffffffffffffffff167fedf7bea45e16025d7f82902171a24376f5f3a2c06d9d8c2be4d41bbc7292f74a85604051610bb49190611273565b60405180910390a4505050565b60038181548110610bd157600080fd5b906000526020600020016000915054906101000a900473ffffffffffffffffffffffffffffffffffffffff1681565b60058181548110610c1057600080fd5b906000526020600020016000915054906101000a900473ffffffffffffffffffffffffffffffffffffffff1681565b610c47611107565b80600460008473ffffffffffffffffffffffffffffffffffffffff1673ffffffffffffffffffffffffffffffffffffffff16815260200190815260200160002060006101000a81548160ff0219169083151502179055508015610d0c576003829080600181540180825580915050600190039060005260206000200160009091909190916101000a81548173ffffffffffffffffffffffffffffffffffffffff021916908373ffffffffffffffffffffffffffffffffffffffff160217905550610dfb565b60005b600380549050811015610df9578273ffffffffffffffffffffffffffffffffffffffff1660038281548110610d4757610d46611805565b5b9060005260206000200160009054906101000a900473ffffffffffffffffffffffffffffffffffffffff1673ffffffffffffffffffffffffffffffffffffffff1603610dec57600060038281548110610da357610da2611805565b5b9060005260206000200160006101000a81548173ffffffffffffffffffffffffffffffffffffffff021916908373ffffffffffffffffffffffffffffffffffffffff1602179055505b8080600101915050610d0f565b505b8173ffffffffffffffffffffffffffffffffffffffff167f4830f50c82a3c08b91bf3770bf51afe49fb5fac668efd79737a514ba1a77d8ff82604051610e419190611461565b60405180910390a25050565b60066020528060005260406000206000915054906101000a900460ff1681565b610e75611107565b80600660008473ffffffffffffffffffffffffffffffffffffffff1673ffffffffffffffffffffffffffffffffffffffff16815260200190815260200160002060006101000a81548160ff0219169083151502179055508015610f3a576005829080600181540180825580915050600190039060005260206000200160009091909190916101000a81548173ffffffffffffffffffffffffffffffffffffffff021916908373ffffffffffffffffffffffffffffffffffffffff160217905550611029565b60005b600580549050811015611027578273ffffffffffffffffffffffffffffffffffffffff1660058281548110610f7557610f74611805565b5b9060005260206000200160009054906101000a900473ffffffffffffffffffffffffffffffffffffffff1673ffffffffffffffffffffffffffffffffffffffff160361101a57600060058281548110610fd157610fd0611805565b5b9060005260206000200160006101000a81548173ffffffffffffffffffffffffffffffffffffffff021916908373ffffffffffffffffffffffffffffffffffffffff1602179055505b8080600101915050610f3d565b505b8173ffffffffffffffffffffffffffffffffffffffff167f3213ab8ec2ed122402f038736b41878b69ae9f61f49a7edd0666bce891d29fc98260405161106f9190611461565b60405180910390a25050565b611083611107565b600073ffffffffffffffffffffffffffffffffffffffff168173ffffffffffffffffffffffffffffffffffffffff16036110f55760006040517f1e4fbdf70000000000000000000000000000000000000000000000000000000081526004016110ec919061148b565b60405180910390fd5b6110fe8161118e565b50565b60015481565b61110f611252565b73ffffffffffffffffffffffffffffffffffffffff1661112d61081f565b73ffffffffffffffffffffffffffffffffffffffff161461118c57611150611252565b6040517f118cdaa7000000000000000000000000000000000000000000000000000000008152600401611183919061148b565b60405180910390fd5b565b60008060009054906101000a900473ffffffffffffffffffffffffffffffffffffffff169050816000806101000a81548173ffffffffffffffffffffffffffffffffffffffff021916908373ffffffffffffffffffffffffffffffffffffffff1602179055508173ffffffffffffffffffffffffffffffffffffffff168173ffffffffffffffffffffffffffffffffffffffff167f8be0079c531659141344cd1fd0a4f28419497f9722a3daafe3b4186f6b6457e060405160405180910390a35050565b600033905090565b6000819050919050565b61126d8161125a565b82525050565b60006020820190506112886000830184611264565b92915050565b600080fd5b600073ffffffffffffffffffffffffffffffffffffffff82169050919050565b60006112be82611293565b9050919050565b6112ce816112b3565b81146112d957600080fd5b50565b6000813590506112eb816112c5565b92915050565b6112fa8161125a565b811461130557600080fd5b50565b600081359050611317816112f1565b92915050565b6000806000606084860312156113365761133561128e565b5b6000611344868287016112dc565b935050602061135586828701611308565b9250506040611366868287016112dc565b9150509250925092565b600080604083850312156113875761138661128e565b5b6000611395858286016112dc565b92505060206113a685828601611308565b9150509250929050565b600080604083850312156113c7576113c661128e565b5b60006113d5858286016112dc565b92505060206113e6858286016112dc565b9150509250929050565b60006040820190506114056000830185611264565b6114126020830184611264565b9392505050565b60006020828403121561142f5761142e61128e565b5b600061143d848285016112dc565b91505092915050565b60008115159050919050565b61145b81611446565b82525050565b60006020820190506114766000830184611452565b92915050565b611485816112b3565b82525050565b60006020820190506114a0600083018461147c565b92915050565b6000602082840312156114bc576114bb61128e565b5b60006114ca84828501611308565b91505092915050565b6114dc81611446565b81146114e757600080fd5b50565b6000813590506114f9816114d3565b92915050565b600080604083850312156115165761151561128e565b5b6000611524858286016112dc565b9250506020611535858286016114ea565b9150509250929050565b600082825260208201905092915050565b7f546f6b656e206e6f742061636365707465640000000000000000000000000000600082015250565b600061158660128361153f565b915061159182611550565b602082019050919050565b600060208201905081810360008301526115b581611579565b9050919050565b7f416d6f756e74206d7573742062652067726561746572207468616e207a65726f600082015250565b60006115f260208361153f565b91506115fd826115bc565b602082019050919050565b60006020820190508181036000830152611621816115e5565b9050919050565b7f496e76616c696420726563697069656e74000000000000000000000000000000600082015250565b600061165e60118361153f565b915061166982611628565b602082019050919050565b6000602082019050818103600083015261168d81611651565b9050919050565b60006040820190506116a9600083018561147c565b6116b66020830184611264565b9392505050565b6000815190506116cc816114d3565b92915050565b6000602082840312156116e8576116e761128e565b5b60006116f6848285016116bd565b91505092915050565b7f4e6f7420616e20617574686f72697a656420636f6e7472616374000000000000600082015250565b6000611735601a8361153f565b9150611740826116ff565b602082019050919050565b6000602082019050818103600083015261176481611728565b9050919050565b6000606082019050611780600083018661147c565b61178d602083018561147c565b61179a6040830184611264565b949350505050565b7f4e487b7100000000000000000000000000000000000000000000000000000000600052601160045260246000fd5b60006117dc8261125a565b91506117e78361125a565b92508282019050808211156117ff576117fe6117a2565b5b92915050565b7f4e487b7100000000000000000000000000000000000000000000000000000000600052603260045260246000fdfea2646970667358221220da085a938448f6081dbc6af532e44696b485922a08eca1e0d449dc21b2db70fc64736f6c634300081c0033",
  "linkReferences": {},
  "deployedLinkReferences": {}
}